:100000000C94FB000C942A010C942A010C942A01F4
:100010000C942A010C942A010C942A010C942A01B4
:100020000C942A010C942A010C942A010C942A01A4
:100030000C942A010C942A010C942A010C942A0194
:100040000C942A010C9474040C942A010C942A0137
:100050000C942A010C942A010C942A010C94B205E8
:100060000C942A010C941C070C940C080C942A0183
:100070000C942A010C942A010C942A010C942A0154
:100080000C94A2040C942A010C942A010C942A01C9
:100090000C9450070C944B080C942A010C942A01E0
:1000A0000C942A010C942A010C94D0040C942A017B
:1000B0000C942A010C942A010C942A010C94FE043D
:1000C0000C942A010C942A010C942A010C948407A4
:1000D0000C948A080C942A010C94B8070C94C90853
:1000E0000C942A014105440537053B057B0548056D
:1000F0004C05520556055A056005640568057B05E3
:100100006E05720576050000090A02080B0C0D0742
:1001100006030401000000000000000000000000D1
:1001200000000000000000000000000000000000CF
:10013000000011100F00000000000000000000008F
:10014000000000000000000000000000010210207C
:1001500020080810204010204080020102010804FD
:100160000201010204081020408080402010080491
:1001700002018004020180402010080402010804EA
:10018000020101020408102040800102040810202E
:100190004080050505050705080808080202020257
:1001A0000A0A080804040404010101010101010113
:1001B0000303030303030303040707070C0C0C0CDE
:1001C0000C0C0C0C020202020606060606060606C7
:1001D0000B0B0B0B0B0B0B0B000022002500280058
:1001E0002B002E003100340002010000050108013F
:1001F0000B01AC03080911241FBECFEFD1E2DEBF13
:10020000CDBF12E0A0E0B2E0EAE3F7E100E00BBF0F
:1002100002C007900D92A433B107D9F715E0A4E30B
:10022000B2E001C01D92A238B107E1F711E0C6EFBC
:10023000D1E000E006C022970109FE010BBF0E9439
:10024000970BC23FD10780E00807A9F70E945E061E
:100250000C949B0B0C940000FC0182819381089507
:1002600020910000309101002617370709F0FFCFD9
:10027000DC01ED91FC910190F081E02D099521E0E8
:10028000181619060CF020E0822F0895CF93DF9303
:10029000EC01E881F9810190F081E02DCE01099512
:1002A0001816190644F4E881F9810684F785E02DD3
:1002B000CE010995EECFDF91CF9108950F931F9353
:1002C000CF93DF93EC018B0184E090E00E943E0A23
:1002D000FC0113821282118300832C813D81232B28
:1002E00029F0EE81FF819383828302C09D838C83FA
:1002F0009F838E838A819B8101969B838A831C8640
:1003000081E0DF91CF911F910F9108950F931F937B
:10031000CF93DF9300D0CDB7DEB78C01DC0112960E
:100320008D919C911397892B69F4ED91FC91048038
:10033000F581E02DC8010F900F90DF91CF911F91B3
:100340000F91099484E090E069837A830E943E0AC9
:10035000F80124813581DC0113963C932E9312978A
:1003600069817A816D937C93958384838281938163
:10037000019693838283148681E00F900F90DF9122
:10038000CF911F910F910895EF92FF920F931F93BA
:10039000CF93DF93EC018A819B81181619061CF517
:1003A0000197A1F0EC81FD8102811381E080F18051
:1003B000CF010E94400A1D830C832A813B8121507A
:1003C00031093B832A831C86C7010FC0E881F9816C
:1003D0000484F585E02DCE01DF91CF911F910F911F
:1003E000FF90EF90099480E090E0DF91CF911F9112
:1003F0000F91FF90EF900895809134029091350213
:10040000892BC1F48DE090E00E943E0AFC018EE051
:1004100092E0918380831582148217821682138260
:10042000128211861086138612861486F093350286
:10043000E093340280913402909135020895FC01DA
:10044000A481B5818485882341F022853385621794
:1004500073071CF0A085B1850BC020E030E008C018
:100460001097A1F012960D90BC91A02D2F5F3F4FD9
:1004700026173707ACF32617370741F481E0848746
:1004800033872287B187A087CD01089580E090E06F
:1004900008950E941F02009721F0FC018081918144
:1004A000089580E090E008950F931F93CF93DF931A
:1004B000EC0177FD3BC08A819B8168177907B4F511
:1004C0006115710531F4E881F9810684F785E02D25
:1004D00009C001976817790759F4E881F981048404
:1004E000F585E02DCE01DF91CF911F910F910994F9
:1004F00061507109CE010E941F02DC011296ED913C
:10050000FC911397008111812281338113963C93D2
:100510002E931297CF010E94400A2A813B812150DD
:1005200031093B832A831C86C80102C080E090E029
:10053000DF91CF911F910F910895CF93DF93EC013D
:100540008A819B811816190684F460E070E0CE0160
:100550000E9449020E946703882339F060E070E03E
:10056000CE01DF91CF910C945402DF91CF91089589
:10057000EF92FF920F931F93CF93DF93EC016A8169
:100580007B81161617067CF51C8661307105E1F03B
:10059000625071090E941F028C01DC011296ED91DC
:1005A000FC911397E080F180CF010E94400AF8018E
:1005B000138212821F830E832A813B8121503109CD
:1005C0003B832A83C70111C0EC81FD810081118129
:1005D000CF010E94400A1D821C821F821E821B8244
:1005E0001A82C80102C080E090E0DF91CF911F9194
:1005F0000F91FF90EF900895CF92DF92EF92FF92CC
:100600000F931F93CF93DF93EC016B017A018A81E3
:100610009B816817790734F0E881F9810480F581BE
:10062000E02D08C06115710581F4E881F98106802B
:10063000F781E02DB701CE01DF91CF911F910F918E
:10064000FF90EF90DF90CF90099484E090E00E94BB
:100650003E0A8C01FC011182108213821282B601C3
:1006600061507109CE010E941F02F801F182E082FF
:10067000FC0122813381F80133832283FC0113833F
:1006800002838A819B8101969B838A831C8681E0F9
:10069000DF91CF911F910F91FF90EF90DF90CF905E
:1006A0000895CF93DF93EA0177FD0DC0FC0122810D
:1006B0003381621773073CF40E941F02FC01D1834F
:1006C000C08381E001C080E0DF91CF910895CF9396
:1006D000DF93EC018985E881F98181110FC00190D8
:1006E000F081E02DCE010995E881F9810280F38146
:1006F000E02DCE01099581E0898723C00084F18532
:10070000E02DCE010995E881F981882371F00284FA
:10071000F385E02DCE010995E881F9810484F58502
:10072000E02DCE01099581E00DC00480F581E02D1A
:10073000CE010995E881F9810680F781E02DCE018F
:10074000099580E0DF91CF91089508958091360258
:10075000909137020C949D020E94FC019093370205
:10076000809336020895CF92DF92EF92FF920F931B
:100770001F93CF93DF936C018B017A01EC01C75C6F
:10078000DD4F888187FF04C0FB011182108223C0E6
:100790002CE02C9DC0012D9D900D11242881AC01D1
:1007A000420F511D27FD5A952091380230E0421723
:1007B00053078CF42881AC01420F511D27FD5A9537
:1007C0009A01FA01EE0FFF1FE20FF31FE35CFD4FEA
:1007D000208126FD19C088818F5F88838CE08C9DE5
:1007E00090018D9D300D11248881A901480F511D64
:1007F00087FD5A958091380290E048175907B4F464
:1008000088818C303CF112C02881820F911D27FD18
:100810009A95FC01EE0FFF1FE80FF91FE35CFD4FF7
:10082000808160E08F730E947C05D5CFF8018081C4
:100830009181049680349C4918F480E49CE904C0BA
:10084000F801808191810496F701918380838FEF75
:10085000888341C0F801808191814881B901640F8A
:10086000711D47FD7A95AB01FB01EE0FFF1FE40FF1
:10087000F51FE35CFD4F41815281840F951FF70105
:10088000918380838881A901480F511D87FD5A9566
:10089000FA01EE0FFF1FE40FF51FE35CFD4F8081AF
:1008A00086FF19C08881280F311D87FD3A95F9010F
:1008B000EE0FFF1FE20FF31FE35CFD4F808161E04D
:1008C0008F73DF91CF911F910F91FF90EF90DF9089
:1008D000CF900C947C05DF91CF911F910F91FF90E9
:1008E000EF90DF90CF9008951F920F920FB60F9266
:1008F00011240BB60F922F933F934F935F936F93F7
:100900007F938F939F93AF93BF93EF93FF9348E8A9
:1009100050E064E870E081E090E00E94B303FF9152
:10092000EF91BF91AF919F918F917F916F915F9167
:100930004F913F912F910F900BBE0F900FBE0F90D4
:100940001F9018951F920F920FB60F9211240BB69D
:100950000F922F933F934F935F936F937F938F9358
:100960009F93AF93BF93EF93FF9348E950E064E9FF
:1009700070E082E090E00E94B303FF91EF91BF919D
:10098000AF919F918F917F916F915F914F913F9127
:100990002F910F900BBE0F900FBE0F901F901895C8
:1009A0001F920F920FB60F9211240BB60F922F9336
:1009B0003F934F935F936F937F938F939F93AF93E7
:1009C000BF93EF93FF9348EA50E064EA70E083E05E
:1009D00090E00E94B303FF91EF91BF91AF919F917F
:1009E0008F917F916F915F914F913F912F910F90D8
:1009F0000BBE0F900FBE0F901F9018951F920F9275
:100A00000FB60F9211240BB60F922F933F934F9373
:100A10005F936F937F938F939F93AF93BF93EF9366
:100A2000FF9348E251E064E271E080E090E00E94D0
:100A3000B303FF91EF91BF91AF919F918F917F9100
:100A40006F915F914F913F912F910F900BBE0F903F
:100A50000FBE0F901F90189590E0FC013197E13187
:100A6000F10508F048C0EE58FF4F0C94910B8091AF
:100A700080008F7703C0809180008F7D80938000FD
:100A8000089584B58F7702C084B58F7D84BD0895A5
:100A90008091B0008F7703C08091B0008F7D8093EC
:100AA000B0000895809190008F7707C080919000EA
:100AB0008F7D03C080919000877F80939000089580
:100AC0008091A0008F7707C08091A0008F7D03C028
:100AD0008091A000877F8093A000089580912001DD
:100AE0008F7707C0809120018F7D03C08091200106
:100AF000877F8093200108950F931F93CF93DF93F7
:100B00001F92CDB7DEB7282F30E0F901EA5FFE4F24
:100B10008491F901E45BFE4F1491F901EE56FE4F0A
:100B200004910023C9F0882321F069830E942C05D9
:100B30006981E02FF0E0EE0FFF1FE852FE4FA59114
:100B4000B4919FB7F8948C91611103C010958123E3
:100B500001C0812B8C939FBF0F90DF91CF911F918C
:100B60000F9108951F920F920FB60F9211242F9399
:100B70003F938F939F93AF93BF938091CE029091B9
:100B8000CF02A091D002B091D1023091CD0223E0EA
:100B9000230F2D3720F40196A11DB11D05C026E8B5
:100BA000230F0296A11DB11D2093CD028093CE028A
:100BB0009093CF02A093D002B093D1028091D20241
:100BC0009091D302A091D402B091D5020196A11DBB
:100BD000B11D8093D2029093D302A093D402B0931C
:100BE000D502BF91AF919F918F913F912F910F901F
:100BF0000FBE0F901F901895789484B5826084BDC5
:100C000084B5816084BD85B5826085BD85B5816010
:100C100085BDEEE6F0E0808181608083E1E8F0E070
:100C20001082808182608083808181608083E0E89F
:100C3000F0E0808181608083E1EBF0E0808184607E
:100C40008083E0EBF0E0808181608083E1E9F0E087
:100C5000808182608083808181608083E0E9F0E030
:100C6000808181608083E1EAF0E08081826080831E
:100C7000808181608083E0EAF0E080818160808310
:100C8000E1E2F1E080818260808380818160808305
:100C9000E0E2F1E0808181608083EAE7F0E080813A
:100CA0008460808380818260808380818160808392
:100CB0008081806880831092C10008950E94FC05A5
:100CC0000E94A503CBEED7E00E94A6032097E1F394
:100CD0000E94EB07F9CFFC0124853585F901E05C22
:100CE000FF4F80819181F901EE5BFF4F20813181BF
:100CF000821B930B8F7399270895FC01848595853A
:100D0000FC01E05CFF4F40815181FC01EE5BFF4F35
:100D1000208131814217530741F00190F081E02D8D
:100D2000E80FF91F808190E008958FEF9FEF0895FD
:100D3000FC0184859585FC01E05CFF4F4081518179
:100D4000FC01EE5BFF4F208131814217530779F0A0
:100D5000A081B181A80FB91F8C91208131812F5FB3
:100D60003F4F2F7333273183208390E008958FEF17
:100D70009FEF0895FC0181A1882329F0A489B589FA
:100D80008C9186FFFBCF11A20895CF93DF93FC01D6
:100D900026853785D901A05CBF4F8D919C91119715
:100DA00001968F739927E901CE5BDF4F4881598106
:100DB00084179507D9F30D90BC91A02DA20FB31FF6
:100DC0006C93A685B785A05CBF4F11969C938E93BC
:100DD000A689B7892C9181E090E0078C02C0880F2A
:100DE000991F0A94E2F7282B2C9381E081A30488B1
:100DF000F589E02D80818064808381E090E0DF913F
:100E0000CF910895FB01E05CFF4F208131812F5F7E
:100E10003F4F2F733327DB01AE5BBF4F4D915C918A
:100E20002417350739F0A081B181A60FB71F8C9325
:100E300031832083089508951F920F920FB60F9269
:100E400011240BB60F922F933F934F935F936F93A1
:100E50007F938F939F93AF93BF93EF93FF93809173
:100E6000C00082FD07C08091C6006AE375E00E9461
:100E7000020702C08091C600FF91EF91BF91AF9130
:100E80009F918F917F916F915F914F913F912F91A2
:100E90000F900BBE0F900FBE0F901F9018950895E6
:100EA0001F920F920FB60F9211240BB60F922F9331
:100EB0003F934F935F936F937F938F939F93AF93E2
:100EC000BF93EF93FF938091C80082FD07C080918C
:100ED000CE0062EB74E00E94020702C08091CE0057
:100EE000FF91EF91BF91AF919F918F917F916F9102
:100EF0005F914F913F912F910F900BBE0F900FBEBE
:100F00000F901F90189508951F920F920FB60F9291
:100F100011240BB60F922F933F934F935F936F93D0
:100F20007F938F939F93AF93BF93EF93FF938091A2
:100F3000D00082FD07C08091D6006AE274E00E9472
:100F4000020702C08091D600FF91EF91BF91AF914F
:100F50009F918F917F916F915F914F913F912F91D1
:100F60000F900BBE0F900FBE0F901F901895089515
:100F70001F920F920FB60F9211240BB60F922F9360
:100F80003F934F935F936F937F938F939F93AF9311
:100F9000BF93EF93FF938091300182FD07C0809152
:100FA000360162EA73E00E94020702C080913601B6
:100FB000FF91EF91BF91AF919F918F917F916F9131
:100FC0005F914F913F912F910F900BBE0F900FBEED
:100FD0000F901F9018958CE393E00E946B06892B6D
:100FE00011F00E941B078AE193E00E946B06892B97
:100FF00011F00E944F0788EF92E00E946B06892B48
:1010000011F00E94830786ED92E00E946B06892B07
:1010100011F00C94B70708951F920F920FB60F921C
:1010200011240BB60F922F933F938F939F93EF93BF
:10103000FF932091360530913705809138059091C6
:1010400039052817390731F48091C1008F7D8093CD
:10105000C10014C0E0913805F0913905EA50FB4F0A
:101060002081809138059091390501968F739927D9
:1010700090933905809338052093C600FF91EF9136
:101080009F918F913F912F910F900BBE0F900FBEAC
:101090000F901F9018951F920F920FB60F92112468
:1010A0000BB60F922F933F938F939F93EF93FF93E2
:1010B0002091AE043091AF048091B0049091B104BE
:1010C0002817390731F48091C9008F7D8093C900BA
:1010D00014C0E091B004F091B104E259FB4F2081BB
:1010E0008091B0049091B10401968F7399279093E9
:1010F000B1048093B0042093CE00FF91EF919F91B3
:101100008F913F912F910F900BBE0F900FBE0F90BC
:101110001F9018951F920F920FB60F9211240BB6C5
:101120000F922F933F938F939F93EF93FF93209171
:1011300026043091270480912804909129042817CF
:10114000390731F48091D1008F7D8093D10014C094
:10115000E0912804F0912904EA51FC4F208180910C
:1011600028049091290401968F739927909329045C
:10117000809328042093D600FF91EF919F918F9147
:101180003F912F910F900BBE0F900FBE0F901F90AD
:1011900018951F920F920FB60F9211240BB60F9253
:1011A0002F933F938F939F93EF93FF9320919E03F1
:1011B00030919F038091A0039091A10328173907D4
:1011C00031F4809131018F7D8093310114C0E09121
:1011D000A003F091A103E25AFC4F20818091A0036B
:1011E0009091A10301968F7399279093A103809307
:1011F000A00320933601FF91EF919F918F913F9132
:101200002F910F900BBE0F900FBE0F901F9018954F
:10121000CF9310923F0310923E0388EE93E0A0E03C
:10122000B0E08093400390934103A0934203B093B6
:10123000430328E232E030933D0320933C034AE32A
:1012400055E0509349034093480346EF54E05093D0
:101250004B0340934A0345EC50E050934D034093B9
:101260004C0344EC50E050934F0340934E0340EC4A
:1012700050E0509351034093500341EC50E05093A1
:1012800053034093520342EC50E050935503409374
:10129000540346EC50E05093570340935603C4E088
:1012A000C0935803F3E0F0935903E7E0E0935A0347
:1012B00075E070935B0361E060935C0310921D0323
:1012C00010921C0380931E0390931F03A09320038E
:1012D000B093210330931B0320931A0342EB54E095
:1012E00050932703409326034EE654E0509329037E
:1012F000409328034DEC50E050932B0340932A0376
:101300004CEC50E050932D0340932C0348EC50E0FC
:1013100050932F0340932E0349EC50E05093310338
:10132000409330034AEC50E0509333034093320330
:101330004EEC50E05093350340933403C093360392
:10134000F0933703E09338037093390360933A03C3
:101350001092FB021092FA028093FC029093FD021D
:10136000A093FE02B093FF023093F9022093F8029B
:101370004AE254E0509305034093040346EE53E0E1
:10138000509307034093060345ED50E05093090343
:101390004093080344ED50E050930B0340930A033D
:1013A00040ED50E050930D0340930C0341ED50E0AD
:1013B00050930F0340930E0342ED50E050931103FE
:1013C0004093100346ED50E05093130340931203F3
:1013D000C0931403F0931503E0931603709317035F
:1013E000609318031092D9021092D8028093DA0207
:1013F0009093DB02A093DC02B093DD023093D7021E
:101400002093D60282EA93E09093E3028093E20273
:101410008EE593E09093E5028093E40285E391E00A
:101420009093E7028093E60284E391E09093E902CF
:101430008093E80280E391E09093EB028093EA02CC
:1014400081E391E09093ED028093EC0282E391E0DE
:101450009093EF028093EE0286E391E09093F10285
:101460008093F002C093F202F093F302E093F4024F
:101470007093F5026093F602CF9108950C946A0A76
:101480000C94020BCF92DF92EF92FF920F931F9377
:10149000CF93DF936C017A01EB01E60EF71E00E0BB
:1014A00010E0CE15DF0561F06991D601ED91FC9158
:1014B0000190F081E02DC6010995080F191FF1CFA9
:1014C000C801DF91CF911F910F91FF90EF90DF90B6
:1014D000CF900895CF93DF938230910510F482E08E
:1014E00090E0E0918005F091810520E030E0A0E0FF
:1014F000B0E0309739F14081518148175907B8F071
:101500004817590771F482819381109729F0139637
:101510009C938E9312972CC09093810580938005A5
:1015200027C02115310531F04217530718F0A901E2
:10153000DB0101C0EF019A01BD01DF010280F381EF
:10154000E02DD7CF21153105F9F0281B390B2430B8
:10155000310580F48A819B816115710521F0FB01C1
:101560009383828304C09093810580938005FE015C
:10157000329644C0FE01E20FF31F819391932250F3
:101580003109398328833AC020917E0530917F0547
:10159000232B41F4209106023091070230937F05FE
:1015A00020937E052091040230910502211531051A
:1015B00041F42DB73EB74091080250910902241B17
:1015C000350BE0917E05F0917F05E217F307A0F45B
:1015D0002E1B3F0B2817390778F0AC014E5F5F4F89
:1015E0002417350748F04E0F5F1F50937F05409337
:1015F0007E058193919302C0E0E0F0E0CF01DF919E
:10160000CF910895CF93DF93009709F487C0FC0131
:10161000329713821282C0918005D0918105209764
:1016200081F420813181280F391F80917E059091AE
:101630007F058217930779F5F0937F05E0937E0588
:101640006DC0DE0120E030E0AE17BF0750F4129607
:101650004D915C9113979D014115510509F1DA01F6
:10166000F3CFB383A28340815181840F951F8A17E2
:101670009B0771F48D919C911197840F951F029691
:101680009183808312968D919C911397938382838B
:101690002115310529F4F0938105E09380053EC0C2
:1016A000D9011396FC93EE9312974D915D91A40F7F
:1016B000B51FEA17FB0779F480819181840F951F8C
:1016C0000296D90111969C938E93828193811396F1
:1016D0009C938E931297E0E0F0E08A819B810097C3
:1016E00019F0FE01EC01F9CFCE0102962881398173
:1016F000820F931F20917E0530917F0528173907AF
:1017000069F4309729F4109281051092800502C087
:1017100013821282D0937F05C0937E05DF91CF9113
:101720000895EE0FFF1F0590F491E02D09940790A6
:0A173000F691E02D0994F894FFCF24
:10173A0001000000000082058000000000002C016A
:10174A00FC025E01860151035402B802C401490237
:10175A003001460100000000C506420A6B069806E1
:04176A007D06BA0638
:00000001FF
